:020000040800F2
:1000000018040020050100085B01000853010008E6
:10001000570100084D0100083D03000800000000E2
:100020000000000000000000000000005F01000868
:1000300051010008000000005D01000849020008AD
:100040001F0100081F0100081F0100081F01000810
:100050001F0100081F0100081F0100081F01000800
:100060001F0100081F0100081F0100081F010008F0
:100070001F0100081F0100081F0100081F010008E0
:100080001F0100081F0100081F0100081F010008D0
:100090001F0100081F0100081F0100081F010008C0
:1000A0001F0100081F0100081F0100081F010008B0
:1000B0001F0100081F0100081F0100081F010008A0
:1000C0001F0100081F0100081F0100081F01000890
:1000D0001F0100081F0100081F0100081F01000880
:1000E0001F0100081F0100081F010008DFF810D0E1
:1000F00000F01AF8004800475F030008AFF30080E3
:10010000180400200648804706480047FEE7FEE73F
:10011000FEE7FEE7FEE7FEE7FEE7FEE7FEE7FEE7B7
:10012000DD020008ED000008064C074D06E0E0681F
:1001300040F0010394E8070098471034AC42F6D32E
:10014000FFF7D8FF680300088803000800BFFEE738
:10015000704700BFFEE700BFFEE77047704770477B
:1001600010B500F001F810BD0CB500200190009012
:100170003348006840F480303149086000BF30489F
:10018000006800F4003000900198401C0190009835
:1001900018B90198B0F5A06FF1D12948006800F4B2
:1001A000003010B10120009001E000200090009884
:1001B000012843D12348006840F01000214908601D
:1001C0000846006820F0070008600846006840F014
:1001D000020008601A4840681949486008464068AB
:1001E00048600846406840F48060486008464068BF
:1001F00020F47C1048600846406840F4E8104860ED
:100200000846006840F08070086000BF0C48006835
:1002100000F000700028F9D00948406820F0030081
:10022000074948600846406840F00200486000BF47
:100230000348406800F00C000828F9D10CBD00000C
:1002400000100240002002400448006820B103482A
:100250000068401E0149086070470000000000204F
:1002600030B500BF19480068194AB0FBF2F1B1F18E
:10027000807F01D301201DE021F07F40401E4FF020
:10028000E022506150170F22002807DA13071D0ED5
:10029000104B00F00F04241F1D5503E013071C0E24
:1002A0000D4B1C5400BF00204FF0E022906107204E
:1002B000106100200028D5D14FF0E020006920F027
:1002C00001004FF0E021086130BD00000400002073
:1002D00040420F0018ED00E000E400E010B51348C4
:1002E000006840F001001149086008464068104964
:1002F00008400E494860084600680E4908400B490E
:1003000008600846006820F48020086008464068BD
:1003100020F4FE0048604FF41F008860FFF720FFC4
:100320004FF000600449086010BD0000001002405A
:100330000000FFF8FFFFF6FE08ED00E000BFFEE75B
:1003400002E008C8121F08C1002AFAD1704770479E
:10035000002001E001C1121F002AFBD17047FFF706
:100360007FFF00BFFEE700008803000800000020B8
:100370001800000040030008A00300081800002037
:1003800000040000500300080000000000A24A041E
:100390000000000000000000010203040607080935
:04000005080000ED02
:00000001FF
