:020000040800F2
:100000000004002049010008890300084703000894
:100010008503000891010008FD04000800000000AD
:10002000000000000000000000000000AD03000818
:1000300095010008000000008B03000899040008E7
:100040006301000863010008630100086301000800
:1000500063010008630100086301000863010008F0
:1000600063010008630100086301000863010008E0
:1000700063010008630100086301000863010008D0
:1000800063010008630100086301000863010008C0
:1000900063010008630100086301000863010008B0
:1000A00063010008630100086301000863010008A0
:1000B0006301000863010008630100086301000890
:1000C0006301000863010008630100086301000880
:1000D0006301000863010008630100086301000870
:1000E0006301000863010008630100086301000860
:1000F0006301000863010008630100086301000850
:10010000630100086301000863010008630100083F
:10011000630100086301000863010008630100082F
:10012000630100086301000863010008630100081F
:10013000DFF810D000F01AF8004800472105000849
:10014000AFF30080000400200648804706480047BF
:10015000FEE7FEE7FEE7FEE7FEE7FEE7FEE7FEE777
:10016000FEE7FEE79D04000831010008064C074D3C
:1001700006E0E06840F0010394E807009847103477
:10018000AC42F6D3FFF7D8FF380500084805000851
:1001900000BFFEE770472DE9F0410246002500262A
:1001A000002000230024002791F803C00CF00F0565
:1001B00091F803C00CF0100CBCF1000F03D091F8C3
:1001C00002C04CEA050591F800C0BCF1000F31D027
:1001D000146800202BE04FF0010C0CFA00F3B1F88A
:1001E00000C00CEA03069E4220D183004FF00F0CA2
:1001F0000CFA03F7BC4305FA03FC4CEA040491F83B
:1002000003C0BCF1280F06D14FF0010C0CFA00FC22
:10021000C2F814C00AE091F803C0BCF1480F05D140
:100220004FF0010C0CFA00FCC2F810C0401C08286A
:10023000D1D31460B1F800C0BCF1FF0F34DD5468B5
:1002400000202EE000F1080C4FF0010808FA0CF332
:10025000B1F800C00CEA03069E4221D183004FF0A2
:100260000F0C0CFA03F7BC4305FA03FC4CEA040438
:1002700091F803C0BCF1280F05D100F1080C08FA71
:100280000CF8C2F8148091F803C0BCF1480F07D1F4
:1002900000F1080C4FF0010808FA0CF8C2F81080C1
:1002A000401C0828CED35460BDE8F081F0B50A4662
:1002B000002300240021002500F00046B6F1004F85
:1002C00002D11D4EF16901E01B4E7168C0F3034578
:1002D00083B200F44016B6F5401F08D121F07061DA
:1002E000154E766826F07066134F7E6012E000F4BB
:1002F0008016B6F5801F06D1032606FA05F4A14341
:1003000041F0706106E0460D360103FA06F6B1438E
:1003100041F0706122B1460D360103FA06F6314311
:1003200000F00046B6F1004F02D1034EF16101E04A
:10033000014E7160F0BD0000000001400AB1016192
:1003400000E04161704700BFFEE7000008B50121F1
:10035000092000F01BF801210848FFF7A7FF08203B
:10036000ADF8000010208DF8030003208DF8020086
:1003700069460348FFF70FFF08BD00000002300088
:10038000000C014000BFFEE77047704729B1064AE4
:1003900092690243044B9A6104E0034A92698243E2
:1003A000014B9A617047000000100240704710B581
:1003B00000F002F810BD00000CB500200190009084
:1003C0003348006840F480303149086000BF30484D
:1003D000006800F4003000900198401C01900098E3
:1003E00018B90198B0F5A06FF1D12948006800F460
:1003F000003010B10120009001E000200090009832
:10040000012843D12348006840F0100021490860CA
:100410000846006820F0070008600846006840F0C1
:10042000020008601A484068194948600846406858
:1004300048600846406840F480604860084640686C
:1004400020F47C1048600846406840F4E81048609A
:100450000846006840F08070086000BF0C480068E3
:1004600000F000700028F9D00948406820F003002F
:10047000074948600846406840F00200486000BFF5
:100480000348406800F00C000828F9D10CBD0000BA
:1004900000100240002002407047000010B51348D1
:1004A000006840F0010011490860084640681049A2
:1004B00008400E494860084600680E4908400B494C
:1004C00008600846006820F48020086008464068FC
:1004D00020F4FE0048604FF41F008860FFF767FFBC
:1004E0004FF000600449086010BD00000010024099
:1004F0000000FFF8FFFFF6FE08ED00E000BFFEE79A
:1005000002E008C8121F08C1002AFAD170477047DC
:10051000002001E001C1121F002AFBD1704700003A
:10052000FFF714FF04E0012208210248FFF706FF4D
:10053000F9E70000000C0140480500080000002019
:08054000000400001005000892
:0400000508000131BD
:00000001FF
