:020000040800F2
:1000000018040020050100087D030008C102000853
:10001000C50200084D0100082D070008000000007F
:10002000000000000000000000000000C103000804
:1000300051010008000000007F030008AD04000823
:100040001F0100081F0100081F0100081F01000810
:100050001F0100081F0100081F0100081F01000800
:100060001F0100081F0100081F0100081F010008F0
:100070001F0100081F0100081F0100081F010008E0
:100080001F0100081F0100081F0100081F010008D0
:100090001F0100081F0100081F0100081F010008C0
:1000A0001F0100081F0100081F0100081F010008B0
:1000B0001F0100081F0100081F0100081F010008A0
:1000C0001F0100081F0100081F0100081F01000890
:1000D0001F0100081F0100081F0100081F01000880
:1000E0001F0100081F0100081F010008DFF810D0E1
:1000F00000F01AF80048004751070008AFF30080ED
:10010000180400200648804706480047FEE7FEE73F
:10011000FEE7FEE7FEE7FEE7FEE7FEE7FEE7FEE7B7
:1001200041050008ED000008064C074D06E0E068B8
:1001300040F0010394E8070098471034AC42F6D32E
:10014000FFF7D8FFB4070008D407000800BFFEE798
:10015000704700B5034603E04FF47A7000F006F8EC
:10016000181EA3F10103F7D100BD00000B49086080
:100170004FF0E021096941F001014FF0E0221161E7
:1001800000BF064909680029FBD14FF0E021096949
:1001900021F001014FF0E0221161704700000020C2
:1001A0002DE9F0410246002500260020002300240E
:1001B000002791F803C00CF00F0591F803C00CF074
:1001C000100CBCF1000F03D091F802C04CEA0505F9
:1001D00091F800C0BCF1000F31D0146800202BE072
:1001E0004FF0010C0CFA00F3B1F800C00CEA030662
:1001F0009E4220D183004FF00F0C0CFA03F7BC4352
:1002000005FA03FC4CEA040491F803C0BCF1280F82
:1002100006D14FF0010C0CFA00FCC2F814C00AE041
:1002200091F803C0BCF1480F05D14FF0010C0CFA56
:1002300000FCC2F810C0401C0828D1D31460B1F8EB
:1002400000C0BCF1FF0F34DD546800202EE000F147
:10025000080C4FF0010808FA0CF3B1F800C00CEAE2
:1002600003069E4221D183004FF00F0C0CFA03F7D6
:10027000BC4305FA03FC4CEA040491F803C0BCF14A
:10028000280F05D100F1080C08FA0CF8C2F8148008
:1002900091F803C0BCF1480F07D100F1080C4FF0F2
:1002A000010808FA0CF8C2F81080401C0828CED3C8
:1002B0005460BDE8F0810AB1016100E0416170471E
:1002C00000BFFEE700BFFEE700B589B001210420B2
:1002D00000F066F80121082000F062F801210220F8
:1002E00000F04EF80120ADF8200018208DF8230012
:1002F00003208DF8220008A91D48FFF751FF632055
:10030000ADF818004720ADF814000020ADF81A0031
:10031000ADF8160005A9174800F0B6F96020ADF851
:1003200004000120ADF806000020ADF80A00ADF889
:100330000C0001A90F4800F04BF908210D4800F00E
:1003400097F901210B4800F02BF90E20ADF82000A1
:1003500010208DF8230003208DF8220008A90648FC
:10036000FFF71EFF0121034800F026F909B000BD88
:10037000000C014000040040000801407047704735
:1003800029B1064AD2690243044BDA6104E0034A08
:10039000D2698243014BDA617047000000100240CD
:1003A00029B1064A92690243044B9A6104E0034A68
:1003B00092698243014B9A6170470000001002402D
:1003C000704710B500F002F810BD00000CB5002019
:1003D000019000903348006840F480303149086053
:1003E00000BF3048006800F4003000900198401CC5
:1003F0000190009818B90198B0F5A06FF1D1294883
:10040000006800F4003010B10120009001E00020ED
:1004100000900098012843D12348006840F0100064
:10042000214908600846006820F007000860084677
:10043000006840F0020008601A48406819494860A6
:100440000846406848600846406840F4806048605C
:100450000846406820F47C1048600846406840F434
:10046000E81048600846006840F08070086000BFEF
:100470000C48006800F000700028F9D00948406876
:1004800020F00300074948600846406840F0020039
:10049000486000BF0348406800F00C000828F9D10C
:1004A0000CBD00000010024000200240044800681B
:1004B00020B103480068401E0149086070470000F1
:1004C0000000002030B500BF19480068194AB0FB91
:1004D000F2F1B1F1807F01D301201DE021F07F40D6
:1004E000401E4FF0E022506150170F22002807DA1B
:1004F00013071D0E104B00F00F04241F1D5503E0C1
:1005000013071C0E0D4B1C5400BF00204FF0E022BF
:1005100090610720106100200028D5D14FF0E02025
:10052000006920F001004FF0E021086130BD0000BB
:100530000400002040420F0018ED00E000E400E05D
:1005400010B51348006840F00100114908600846E2
:100550004068104908400E494860084600680E4946
:1005600008400B4908600846006820F480200860B5
:100570000846406820F4FE0048604FF41F00886081
:10058000FFF71FFF4FF000600449086010BD000036
:10059000001002400000FFF8FFFFF6FE08ED00E04B
:1005A00021B1028842F08002028004E002884FF606
:1005B0007F731A400280704721B1028842F0010225
:1005C000028004E002884FF6FE731A4002807047F2
:1005D00070B5002400220023058C4FF6FF663540DD
:1005E0000584028C8388848B4FF68F752C404FF6E0
:1005F000FC752C400D882C434FF6FF552A400D8981
:100600004FF6FF7606EA05252A434D8806EA0525BA
:100610002A43154DA84202D0144DA8421DD14FF2D5
:10062000FF752A404D894FF6FF7606EA05252A43D5
:100630004FF6FF352A408D8806EA05252A434EF6F7
:10064000FF752B404DF6FF752B408D8906EA051589
:100650002B43CD8906EA05152B4383808483CD88FF
:100660008587028470BD0000002C014000340140E9
:100670000A460021818B4FF6F7731940114381839D
:100680007047818770470000002202881D4B984206
:100690000ED01D4B98420BD0B0F1804F08D01B4BB1
:1006A000984205D01A4B984202D01A4B984204D176
:1006B0004FF68F731A404B881A43174B984207D056
:1006C000164B984204D04FF6FF431A40CB881A438A
:1006D00002808B8883850B8803850A4B98420BD058
:1006E000094B984208D00E4B984205D00D4B9842CA
:1006F00002D00D4B984201D10B7A038601238382ED
:1007000070470000002C014000340140000400400C
:1007100000080040000C00400010004000140040A1
:1007200000400140004401400048014000BFFEE796
:1007300002E008C8121F08C1002AFAD170477047AA
:10074000002001E001C1121F002AFBD17047000008
:10075000FFF7B8FEFFF7B8FD012202211348FFF7AB
:10076000AAFD012204211148FFF7A5FD002208215E
:100770000E48FFF7A0FD002417E0002407E0A1B217
:100780000B48FFF77EFF3220FFF7E3FC641C642C6C
:10079000F5D3642407E0A1B20548FFF772FF3220C9
:1007A000FFF7D7FC641E002CF5D1E6E700080140F6
:1007B00000040040D40700080000002018000000DA
:1007C00030070008EC0700081800002000040000B3
:1007D000400700080000000000A24A0400000000DA
:0C07E000000000000102030406070809E5
:04000005080000ED02
:00000001FF
