:020000040800F2
:1000000038040020050100082D040008ED02000856
:10001000F102000879010008890F000800000000C3
:10002000000000000000000000000000CD050008F6
:100030007D01000800000000B5040008B9060008B2
:100040001F0100081F0100081F0100081F01000810
:100050001F0100081F0100081F0100081F01000800
:100060001F0100081F0100081F0100081F010008F0
:100070001F0100081F0100081F0100081F010008E0
:100080001F0100081F0100081F0100081F010008D0
:100090001F0100081F0100081F0100081F010008C0
:1000A0001F0100081F0100081F0100081F010008B0
:1000B000ED0900081F0100081F0100081F010008CA
:1000C0001F0100081F0100081F0100081F01000890
:1000D0001F0100081F0100081F0100081F01000880
:1000E0001F0100081F0100081F010008DFF810D0E1
:1000F00000F030F80048004755110008AFF30080C9
:10010000380400200648804706480047FEE7FEE71F
:10011000FEE7FEE7FEE7FEE7FEE7FEE7FEE7FEE7B7
:100120004D070008ED00000830B50B4601460020E1
:100130002022012409E021FA02F59D4205D303FAA9
:1001400002F5491B04FA02F52844151EA2F101022A
:10015000F1DC30BD064C074D06E0E06840F00103DD
:1001600094E8070098471034AC42F6D3FFF7C2FF7B
:10017000D8110008F811000800BFFEE7704700B56D
:10018000034603E04FF47A7000F006F8181EA3F15E
:100190000103F7D100BD00000B4908604FF0E021DA
:1001A000096941F001014FF0E022116100BF0649E9
:1001B00009680029FBD14FF0E021096921F0010114
:1001C0004FF0E02211617047000000202DE9F0415E
:1001D000024600250026002000230024002791F875
:1001E00003C00CF00F0591F803C00CF0100CBCF12B
:1001F000000F03D091F802C04CEA050591F800C049
:10020000BCF1000F31D0146800202BE04FF0010C3E
:100210000CFA00F3B1F800C00CEA03069E4220D1AC
:1002200083004FF00F0C0CFA03F7BC4305FA03FCF4
:100230004CEA040491F803C0BCF1280F06D14FF03A
:10024000010C0CFA00FCC2F814C00AE091F803C0DB
:10025000BCF1480F05D14FF0010C0CFA00FCC2F8BC
:1002600010C0401C0828D1D31460B1F800C0BCF104
:10027000FF0F34DD546800202EE000F1080C4FF031
:10028000010808FA0CF3B1F800C00CEA03069E421C
:1002900021D183004FF00F0C0CFA03F7BC4305FA91
:1002A00003FC4CEA040491F803C0BCF1280F05D10B
:1002B00000F1080C08FA0CF8C2F8148091F803C099
:1002C000BCF1480F07D100F1080C4FF0010808FA03
:1002D0000CF8C2F81080401C0828CED35460BDE84A
:1002E000F0810AB1016100E04161704700BFFEE7A3
:1002F00000BFFEE700B587B00121082000F0ECF850
:100300000121042000F0D8F8C020ADF81800042026
:100310008DF81B0006A91648FFF758FF4FF6FF702F
:10032000ADF804000020ADF80000ADF80600ADF80F
:10033000020069460F4800F00DFD00231A46032114
:100340000C4800F0E0FB03A800F068FC0A20ADF8C0
:10035000140003A9074800F00BFC0021054800F039
:10036000CAFC0121034800F0C2FB07B000BD000039
:10037000000C01400008004000B589B001210420B4
:1003800000F0AAF80121082000F0A6F801210220BF
:1003900000F092F80120ADF8200018208DF823001D
:1003A00003208DF8220008A91D48FFF70FFF6320E6
:1003B000ADF818004720ADF814000020ADF81A0081
:1003C000ADF8160005A9174800F0C4FC6020ADF890
:1003D00004000120ADF806000020ADF80A00ADF8D9
:1003E0000C0001A90F4800F02BFC08210D4800F07B
:1003F00077FC01210B4800F068FB0E20ADF82000CF
:1004000010208DF8230003208DF8220008A906484B
:10041000FFF7DCFE0121034800F069FB09B000BDD5
:10042000000C01400004004000080140704700003B
:1004300070B5002100230F22C47804B3154C246842
:1004400004F4E064C4F5E064210AC1F10403CA4085
:10045000447804FA03F184781440214309010E4CD6
:100460000678A155047804F01F050124AC400578F6
:100470006D11AD0005F1E025C5F8004109E00478F3
:1004800004F01F050124AC40044D0678761145F8B0
:10049000264070BD0CED00E000E400E080E100E0EB
:1004A00002490143024A1160704700000000FA054A
:1004B0000CED00E07047000029B1064AD269024302
:1004C000044BDA6104E0034AD2698243014BDA61EA
:1004D000704700000010024029B1064A92690243A9
:1004E000044B9A6104E0034A92698243014B9A618A
:1004F000704700000010024030B5002100220024A7
:1005000000232D4D6D6805F00C0121B1042905D0A3
:10051000082923D105E0294D056022E0274D05601B
:100520001FE0254D6D6805F47012234D6D6805F4CC
:100530008034022505EB92421CB9214D55430560DC
:100540000BE01D4D6D6805F400351DB11C4D554384
:10055000056002E0194D5543056002E0174D056046
:1005600000BF00BF144D6D6805F0F0010909154D7D
:100570006B5C0568DD4045600F4D6D6805F4E0611A
:10058000090A104D6B5C4568DD4085600A4D6D6859
:1005900005F46051C90A0B4D6B5C4568DD40C560D0
:1005A000054D6D6805F44041890B074D6B5CC568CE
:1005B000B5FBF3F5056130BD0010024000127A0072
:1005C00000093D002000002030000020704710B5D9
:1005D00000F002F810BD00000CB500200190009062
:1005E0003348006840F480303149086000BF30482B
:1005F000006800F4003000900198401C01900098C1
:1006000018B90198B0F5A06FF1D12948006800F43D
:10061000003010B10120009001E00020009000980F
:10062000012843D12348006840F0100021490860A8
:100630000846006820F0070008600846006840F09F
:10064000020008601A484068194948600846406836
:1006500048600846406840F480604860084640684A
:1006600020F47C1048600846406840F4E810486078
:100670000846006840F08070086000BF0C480068C1
:1006800000F000700028F9D00948406820F003000D
:10069000074948600846406840F00200486000BFD3
:1006A0000348406800F00C000828F9D10CBD000098
:1006B00000100240002002400448006820B10348B6
:1006C0000068401E014908607047000000000020DB
:1006D00030B500BF19480068194AB0FBF2F1B1F11A
:1006E000807F01D301201DE021F07F40401E4FF0AC
:1006F000E022506150170F22002807DA13071D0E61
:10070000104B00F00F04241F1D5503E013071C0EAF
:100710000D4B1C5400BF00204FF0E02290610720D9
:10072000106100200028D5D14FF0E020006920F0B2
:1007300001004FF0E021086130BD00000C000020F6
:1007400040420F0018ED00E000E400E010B513484F
:10075000006840F0010011490860084640681049EF
:1007600008400E494860084600680E4908400B4999
:1007700008600846006820F4802008600846406849
:1007800020F4FE0048604FF41F008860FFF71FFF51
:100790004FF000600449086010BD000000100240E6
:1007A0000000FFF8FFFFF6FE08ED00E0F0B50C4694
:1007B000154600220021068C4FF6FE773E40068447
:1007C000028B018C4FF60C7632407E1C06EA031633
:1007D0002E433243104EB0420ED0104EB0420BD0DA
:1007E000B0F1804F08D00E4EB04205D00D4EB04251
:1007F00002D00D4EB04206D14FF6FD76314044F0A6
:100800000106314305E04FF6F576314044F001062C
:10081000314302830184F0BD002C014000340140CB
:100820000004004000080040000C0040F0B50C46F9
:100830001546002200210026078C4FF6EF7C07EAC0
:100840000C070784028B018C4FF6FF7707EA04162A
:1008500040F6FF473A404FF6FF7707EA03373A433F
:100860004FF6FF7707EA05273A43114FB8420ED0FB
:10087000104FB8420BD0B0F1804F08D00E4FB842A5
:1008800005D00E4FB84202D00D4FB84206D14FF6F8
:10089000DF77394046F01007394305E04FF65F77C0
:1008A000394044F01007394302830184F0BD000051
:1008B000002C0140003401400004004000080040CA
:1008C000000C0040F0B50C46154600220021002621
:1008D000078C4FF6FF6C07EA0C070784828B018CAC
:1008E0004FF6FF7707EA04264FF60C773A404FF6AB
:1008F000FF7707EA03172F433A43114FB8420ED050
:10090000104FB8420BD0B0F1804F08D00E4FB84214
:1009100005D00E4FB84202D00D4FB84206D14FF667
:10092000FF57394046F48077394305E04FF2FF57CF
:10093000394044F48077394382830184F0BD00005C
:10094000002C014000340140000400400008004039
:10095000000C0040F0B50C46154600220021002690
:10096000078C4EF6FF7C07EA0C070784828B018C0C
:100970004FF6FF7707EA043640F6FF473A404FF656
:10098000FF7707EA05273A434FF6FF7707EA033771
:100990003A43114FB8420ED0104FB8420BD0B0F1CD
:1009A000804F08D00E4FB84205D00E4FB84202D04B
:1009B0000D4FB84206D14DF6FF77394046F48057C7
:1009C000394305E047F6FF57394044F4805739432F
:1009D00082830184F0BD0000002C014000340140FE
:1009E0000004004000080040000C004010B5012148
:1009F000880700F0ACF800B310480068401C0F49AD
:100A0000086008460068642813D1002008600C487C
:100A100000F09AF80B490860084600681621B0FB00
:100A2000F1F4214608A000F0B1FA0021044800F0DA
:100A300062F90121880700F057F810BD040000207A
:100A400000080040080000204D6F746F725F537003
:100A5000656564203D2025640A0000001FB5012162
:100A60000846FFF729FD4FF4C060FFF719FD1C2071
:100A70008DF80C0000208DF80D0002208DF80E007E
:100A800001208DF80F0003A8FFF7D2FC42F20F708F
:100A9000ADF804004720ADF800000020ADF80600D6
:100AA000ADF8020069464FF0804000F053F9012193
:100AB000880700F016F801221146900700F0B7F8F9
:100AC0000121880700F013F81FBD21B1028842F010
:100AD0008002028004E002884FF67F731A40028091
:100AE0007047CA4302827047CA430282704721B1ED
:100AF000028842F00102028004E002884FF6FE7391
:100B00001A4002807047F0B50C4615461E4600217B
:100B1000002200230189028B038C4FF6F8773940BD
:100B200021434FF6FC473A4040F201173A434FF653
:100B3000DD773B404FF6FF7707EA06172F433B432D
:100B4000018102830384F0BD0146888C704730B573
:100B50000246002000230024158A05EA0103958936
:100B600005EA010413B10CB1012000E0002030BD02
:100B700070B505460C46244885420ED02348854270
:100B80000BD0B5F1804F08D02148854205D02148CF
:100B9000854202D02048854200D100E000BF208875
:100BA00050B92389A28861882846FFF7FFFDE188B4
:100BB000284600F0A2F825E0208804280AD12389DD
:100BC000A28861882846FFF731FEE188284600F0B8
:100BD0009DF817E0208808280AD12389A288618817
:100BE0002846FFF76FFEE188284600F09CF809E0F0
:100BF0002389A28861882846FFF7ACFEE188284651
:100C000000F09AF870BD0000002C01400034014053
:100C10000004004000080040000C0040002101805A
:100C20004180012181800021C180018170471AB17A
:100C300083890B43838102E083898B4383817047DF
:100C400070B5002400220023058C4FF6FF66354066
:100C50000584028C8388848B4FF68F752C404FF669
:100C6000FC752C400D882C434FF6FF552A400D890A
:100C70004FF6FF7606EA05252A434D8806EA052544
:100C80002A43154DA84202D0144DA8421DD14FF25F
:100C9000FF752A404D894FF6FF7606EA05252A435F
:100CA0004FF6FF352A408D8806EA05252A434EF681
:100CB000FF752B404DF6FF752B408D8906EA051513
:100CC0002B43CD8906EA05152B4383808483CD8889
:100CD0008587028470BD0000002C01400034014073
:100CE0000A460021818B4FF6F77319401143818327
:100CF00070478187704781847047028B4FF6F3738A
:100D00001A400283028B0A4302837047028B4FF220
:100D1000FF331A400283028B4FF6FF7303EA01236D
:100D20001A4302837047828B4FF6F3731A40828313
:100D3000828B0A4382837047828B4FF2FF331A40C3
:100D40008283828B4FF6FF7303EA01231A43828367
:100D500070470000002202881D4B98420ED01D4BA8
:100D600098420BD0B0F1804F08D01B4B984205D071
:100D70001A4B984202D01A4B984204D14FF68F7307
:100D80001A404B881A43174B984207D0164B98428B
:100D900004D04FF6FF431A40CB881A4302808B8859
:100DA00083850B8803850A4B98420BD0094B9842E8
:100DB00008D00E4B984205D00D4B984202D00D4BF7
:100DC000984201D10B7A0386012383827047000089
:100DD000002C0140003401400004004000080040A5
:100DE000000C004000100040001400400040014092
:100DF000004401400048014000B585B0012144F2A3
:100E00000400FFF769FB4FF40070ADF810000320F9
:100E10008DF8120018208DF8130004A91348FFF76D
:100E2000D5F94FF48060ADF8100004208DF8130060
:100E300004A90E48FFF7CAF94FF4E13000900020F2
:100E4000ADF80400ADF80600ADF80800ADF80C00F0
:100E50000C20ADF80A006946054800F025F801218C
:100E6000034800F007F805B000BD0000000801408D
:100E70000038014021B1828942F40052828104E0AD
:100E800082894DF6FF731A40828170470246002026
:100E9000B1F5007F00D100BF13880B400BB10120DA
:100EA00000E00020704700002DE9F04786B00546BD
:100EB0000E460024A24600BFA1460027B08900B11B
:100EC00000BF2F462C8A4CF6FF700440F088044384
:100ED0002C82AC894EF6F3100440B0883189084367
:100EE000718908430443AC81AC8A4FF6FF4004404B
:100EF000B0890443AC8201A8FFF7FEFA1F4887427D
:100F000002D1DDF810A001E0DDF80CA0A88900F402
:100F1000004040B10AEBCA0000EB0A1031684900FA
:100F2000B0FBF1F807E00AEBCA0000EB0A103168E9
:100F30008900B0FBF1F86420B8FBF0F0040120094F
:100F4000642101FB1089A88900F4004040B13220DF
:100F500000EBC900B0FBF1F000F00700044308E02B
:100F6000322000EB09106421B0FBF1F000F00F001B
:100F700004432C8106B0BDE8F08700000038014032
:100F8000C1F308028280704700BFFEE70FB4054B33
:100F900010B503A9044A029800F018F810BC5DF8D7
:100FA00014FB0000211100083400002002E008C8F2
:100FB000121F08C1002AFAD170477047002001E0D3
:100FC00001C1121F002AFBD1704700002DE9FF4F1D
:100FD00089B09B460446002506E025280BD05A46DA
:100FE0000B999047641C6D1C20780028F5D10DB03A
:100FF0002846BDE8F08F0027B8460122474900E0A7
:10100000074314F8013F203B02FA03F00842F7D1EE
:1010100020782E2819D114F8010F47F004072A2848
:101020000ED06FF02F022078A0F1300109290CD8E2
:1010300008EB880102EB410100EB0108641CF2E7B8
:101040000A98641C50F8048B0A9020780028CED0AF
:10105000642808D0692806D075281ED05A460B99F6
:1010600090476D1C58E00A994FF00A0901C90A918E
:10107000002802DA40422D2102E0390504D52B2157
:101080008DF82010012103E0F90704D02021F7E7B3
:101090008A4608AE0DE00021FAE70A994FF00A09E6
:1010A00001C90A91F7E74946FFF73EF8303106F8E3
:1010B000011D0028F7D1ADEB060000F120097807EB
:1010C00001D44FF00108C84502DDA8EB090000E09B
:1010D00000208046002706E008A85A46C05D0B990C
:1010E00090476D1C7F1C5745F6DB04E030205A46C4
:1010F0000B9990476D1CB8F10001A8F10108F5DCCF
:1011000005E016F8010B5A460B9990476D1CB9F192
:101110000001A9F10109F4DC641C65E7092801005C
:1011200070B504460D4600BF80210948FFF7AEFEAA
:101130000028F9D0A1B20648FFF722FF00BF4021E6
:101140000348FFF7A3FE0028F9D0204670BD000039
:1011500000380140FFF7BCFAFFF780FCFFF74CFEB8
:10116000FFF70AF9FFF7C6F8012202211848FFF736
:10117000B8F8012204211648FFF7B3F8002208212D
:101180001348FFF7AEF8002421E0002408E0A1B2E4
:101190001048FFF7AEFD4FF4FA70FEF7F0FF641C45
:1011A000642CF4D342F21070FEF7E9FF642408E0E7
:1011B000A1B20848FFF79DFD4FF4FA70FEF7DFFF7C
:1011C000641E002CF4D142F21070FEF7D8FFDCE769
:1011D0000008014000040040F81100080000002051
:1011E00038000000AC0F0008301200083800002062
:1011F00000040000BC0F0008000000000000000018
:101200000000000000A24A040000000000000000EE
:10121000010203040607080900000000010203049C
:101220000102030406070809020406080000000082
:04000005080000ED02
:00000001FF
