:020000040800F2
:10000000A8040020490100082D0600080305000887
:100010002906000891010008A5080008000000005A
:10002000000000000000000000000000C5060008FD
:100030009501000800000000A1060008B1070008B3
:100040006301000863010008630100086301000800
:100050006301000863010008E5010008630100086E
:1000600063010008630100086301000863010008E0
:1000700063010008630100086301000863010008D0
:1000800063010008630100086301000863010008C0
:1000900063010008630100086301000863010008B0
:1000A00063010008630100086301000863010008A0
:1000B0006301000863010008630100086301000890
:1000C0006301000863010008630100086301000880
:1000D0006301000863010008630100086301000870
:1000E0006301000863010008630100086301000860
:1000F0006301000863010008630100086301000850
:10010000630100086301000863010008630100083F
:10011000630100086301000863010008630100082F
:10012000630100086301000863010008630100081F
:10013000DFF810D000F01AF800480047C90800089E
:10014000AFF30080A8040020064880470648004717
:10015000FEE7FEE7FEE7FEE7FEE7FEE7FEE7FEE777
:10016000FEE7FEE74508000831010008064C074D90
:1001700006E0E06840F0010394E807009847103477
:10018000AC42F6D3FFF7D8FF140900083409000881
:1001900000BFFEE7704700B5034603E04FF47A70F6
:1001A00000F006F8181EA3F10103F7D100BD00000E
:1001B0000B4908604FF0E021096941F001014FF05F
:1001C000E022116100BF064909680029FBD14FF008
:1001D000E021096921F001014FF0E022116170472F
:1001E0006800002010B50D49086900F021F898B1A9
:1001F0000B4A1189506800F076F908B9012000E037
:1002000000200446064A11895068224600F074F91D
:100210000249086900F006F810BD00006C000020DB
:100220008800002001490860704700001404014064
:10023000014600200022074B1B6803EA0102054B20
:1002400014331B680B4013B10AB1012000E00020F9
:100250007047000000040140002123498279002AF0
:100260003AD00A46126803689A430B461A600A1D80
:10027000126803689A430B1D1A60027911440A68D8
:1002800003681A430A60184A0832126803689A43DE
:10029000154B08331A601A1D126803689A43124BF3
:1002A0000C331A604279102A0ED11A1F12680368A3
:1002B0001A430D4B08331A601A1D126803681A435B
:1002C000094B0C331A600DE00749427911440A6862
:1002D00003681A430A6005E0027911440A6803685A
:1002E0009A430A60704700000004014030B50022C4
:1002F0008B071C0F0F2303FA04F20B4B8C1053F8DF
:1003000024309343084C8D1044F8253023468C103C
:1003100053F824308C07240F00FA04F42343024CD2
:100320008D1044F8253030BD080001402DE9F04122
:10033000024600250026002000230024002791F813
:1003400003C00CF00F0591F803C00CF0100CBCF1C9
:10035000000F03D091F802C04CEA050591F800C0E7
:10036000BCF1000F31D0146800202BE04FF0010CDD
:100370000CFA00F3B1F800C00CEA03069E4220D14B
:1003800083004FF00F0C0CFA03F7BC4305FA03FC93
:100390004CEA040491F803C0BCF1280F06D14FF0D9
:1003A000010C0CFA00FCC2F814C00AE091F803C07A
:1003B000BCF1480F05D14FF0010C0CFA00FCC2F85B
:1003C00010C0401C0828D1D31460B1F800C0BCF1A3
:1003D000FF0F34DD546800202EE000F1080C4FF0D0
:1003E000010808FA0CF3B1F800C00CEA03069E42BB
:1003F00021D183004FF00F0C0CFA03F7BC4305FA30
:1004000003FC4CEA040491F803C0BCF1280F05D1A9
:1004100000F1080C08FA0CF8C2F8148091F803C037
:10042000BCF1480F07D100F1080C4FF0010808FAA1
:100430000CF8C2F81080401C0828CED35460BDE8E8
:10044000F0810000F0B50A460023002400210025B9
:1004500000F00046B6F1004F02D11D4EF16901E0F7
:100460001B4E7168C0F3034583B200F44016B6F525
:10047000401F08D121F07061154E766826F0706635
:10048000134F7E6012E000F48016B6F5801F06D18F
:10049000032606FA05F4A14341F0706106E0460D1B
:1004A000360103FA06F6B14341F0706122B1460D00
:1004B000360103FA06F6314300F00046B6F1004F6C
:1004C00002D1034EF16101E0014E7160F0BD000008
:1004D000000001400246002093680B400BB1012050
:1004E00000E00020704702460020D3680B400BB1AB
:1004F000012000E0002070470AB1016100E0416185
:10050000704700BFFEE770B504460D4629462046F9
:10051000FFF7E0FF90B91420FFF73DFE2946204683
:10052000FFF7D8FF40B900BF29462046FFF7D2FFAA
:100530000028F9D0012070BD0020FCE70020FAE778
:100540001FB51D490868012100F0ACF81A48008960
:10055000ADF80C001848807A8DF80F0016494868ED
:1005600003A9FFF7E3FE144A117BD07AFFF7BEFE22
:100570001148006900901048007D8DF804000E4875
:10058000407D8DF8050001208DF806006846FFF7D4
:1005900063FE0948807D8DF808000748C07D8DF80E
:1005A00009000548007E8DF80A0001208DF80B0037
:1005B00002A800F03DF81FBD4C00002008B5094915
:1005C0000868012100F06EF806480089ADF80000C7
:1005D0000448807A8DF80300024948686946FFF7AD
:1005E000A5FE08BD4000002008B50D49086801219E
:1005F00000F058F801210B48FFF724FF0848008954
:10060000ADF800000648807A8DF803000448C07AEF
:100610008DF80200024948686946FFF787FE08BD69
:10062000340000200002300000BFFEE770470000E9
:1006300070B5002100230F22C47804B3154C246840
:1006400004F4E064C4F5E064210AC1F10403CA4083
:10065000447804FA03F184781440214309010E4CD4
:100660000678A155047804F01F050124AC400578F4
:100670006D11AD0005F1E025C5F8004109E00478F1
:1006800004F01F050124AC40044D0678761145F8AE
:10069000264070BD0CED00E000E400E080E100E0E9
:1006A0007047000029B1064A92690243044B9A61DF
:1006B00004E0034A92698243014B9A61704700004B
:1006C00000100240704710B500F002F810BD0000A5
:1006D0000CB50020019000903348006840F4803051
:1006E0003149086000BF3048006800F400300090D5
:1006F0000198401C0190009818B90198B0F5A06FBE
:10070000F1D12948006800F4003010B101200090B8
:1007100001E0002000900098012843D123480068A0
:1007200040F01000214908600846006820F00700EA
:1007300008600846006840F0020008601A484068F7
:10074000194948600846406848600846406840F4D7
:10075000806048600846406820F47C104860084685
:10076000406840F4E81048600846006840F0807037
:10077000086000BF0C48006800F000700028F9D045
:100780000948406820F0030007494860084640686F
:1007900040F00200486000BF0348406800F00C00D1
:1007A0000828F9D10CBD00000010024000200240D2
:1007B0000448006820B103480068401E01490860F1
:1007C000704700006800002030B500BF194800687D
:1007D000194AB0FBF2F1B1F1807F01D301201DE095
:1007E00021F07F40401E4FF0E022506150170F2251
:1007F000002807DA13071D0E104B00F00F04241F0A
:100800001D5503E013071C0E0D4B1C5400BF0020A8
:100810004FF0E02290610720106100200028D5D120
:100820004FF0E020006920F001004FF0E021086166
:1008300030BD00009400002040420F0018ED00E0A1
:1008400000E400E010B51348006840F001001149D1
:10085000086008464068104908400E49486008464C
:1008600000680E4908400B4908600846006820F4FB
:10087000802008600846406820F4FE0048604FF47D
:100880001F008860FFF71FFF4FF0006004490860F9
:1008900010BD0000001002400000FFF8FFFFF6FE50
:1008A00008ED00E000BFFEE702E008C8121F08C123
:1008B000002AFAD170477047002001E001C1121FE1
:1008C000002AFBD170470000FFF77EFFFFF78CFE88
:1008D000FFF774FEFFF734FE16E00C4A11895068EA
:1008E000FFF711FE01280FD1094A11895068FFF75F
:1008F000FAFD08B9012000E000200446044A1189ED
:1009000050682246FFF7F8FDE7E700000C000020E2
:10091000000000203409000800000020A8000000AA
:10092000A8080008DC090008A80000200004000056
:10093000B808000809000000000C0140080010037E
:10094000040000000008014000014800050000000C
:100950000008014001004800000000000100000004
:10096000000C060F0F00000009000000000C014001
:1009700008001003040000000008014000014800C6
:1009800005000000000801400100480000000000D0
:1009900001000000000C060F0F0000000000000026
:1009A00005000000000801400100480000000000B0
:1009B00001000000000C060F0F00000009000000FD
:1009C000000C01400800100300A24A0400000000CF
:0C09D000000000000102030406070809F3
:0400000508000131BD
:00000001FF
