:020000040800F2
:10000000480400204901000869040008BB030008F7
:1000100065040008910100086D060008000000005A
:100020000000000000000000000000008D04000837
:1000300095010008000000006B0400087905000825
:100040006301000863010008630100086301000800
:1000500063010008630100086301000863010008F0
:1000600063010008630100086301000863010008E0
:1000700063010008630100086301000863010008D0
:1000800063010008630100086301000863010008C0
:1000900063010008630100086301000863010008B0
:1000A00063010008630100086301000863010008A0
:1000B0006301000863010008630100086301000890
:1000C0006301000863010008630100086301000880
:1000D0006301000863010008630100086301000870
:1000E0006301000863010008630100086301000860
:1000F0006301000863010008630100086301000850
:10010000630100086301000863010008630100083F
:10011000630100086301000863010008630100082F
:10012000630100086301000863010008630100081F
:10013000DFF810D000F01AF80048004791060008D8
:10014000AFF3008048040020064880470648004777
:10015000FEE7FEE7FEE7FEE7FEE7FEE7FEE7FEE777
:10016000FEE7FEE70D06000831010008064C074DCA
:1001700006E0E06840F0010394E807009847103477
:10018000AC42F6D3FFF7D8FFD8060008F8060008FF
:1001900000BFFEE7704700B5034603E04FF47A70F6
:1001A00000F006F8181EA3F10103F7D100BD00000E
:1001B0000B4908604FF0E021096941F001014FF05F
:1001C000E022116100BF064909680029FBD14FF008
:1001D000E021096921F001014FF0E022116170472F
:1001E000300000202DE9F0410246002500260020C5
:1001F00000230024002791F803C00CF00F0591F8AC
:1002000003C00CF0100CBCF1000F03D091F802C039
:100210004CEA050591F800C0BCF1000F31D014681C
:1002200000202BE04FF0010C0CFA00F3B1F800C0F5
:100230000CEA03069E4220D183004FF00F0C0CFA0B
:1002400003F7BC4305FA03FC4CEA040491F803C02D
:10025000BCF1280F06D14FF0010C0CFA00FCC2F8DB
:1002600014C00AE091F803C0BCF1480F05D14FF06B
:10027000010C0CFA00FCC2F810C0401C0828D1D3B5
:100280001460B1F800C0BCF1FF0F34DD54680020E9
:100290002EE000F1080C4FF0010808FA0CF3B1F859
:1002A00000C00CEA03069E4221D183004FF00F0CE0
:1002B0000CFA03F7BC4305FA03FC4CEA040491F87A
:1002C00003C0BCF1280F05D100F1080C08FA0CF8A6
:1002D000C2F8148091F803C0BCF1480F07D100F1B7
:1002E000080C4FF0010808FA0CF8C2F81080401C06
:1002F0000828CED35460BDE8F0810000F0B50A466E
:10030000002300240021002500F00046B6F1004F34
:1003100002D11D4EF16901E01B4E7168C0F3034527
:1003200083B200F44016B6F5401F08D121F0706189
:10033000154E766826F07066134F7E6012E000F46A
:100340008016B6F5801F06D1032606FA05F4A143F0
:1003500041F0706106E0460D360103FA06F6B1433E
:1003600041F0706122B1460D360103FA06F63143C1
:1003700000F00046B6F1004F02D1034EF16101E0FA
:10038000014E7160F0BD00000000014002460020F7
:1003900093680B400BB1012000E00020704702463B
:1003A0000020D3680B400BB1012000E00020704713
:1003B0000AB1016100E04161704700BFFEE770B51E
:1003C00004460D4629462046FFF7E0FF90B9142069
:1003D000FFF7E1FE29462046FFF7D8FF40B900BFEE
:1003E00029462046FFF7D2FF0028F9D0012070BD32
:1003F0000020FCE70020FAE708B509490868012158
:1004000000F034F806480089ADF800000448807A0E
:100410008DF80300024948686946FFF7E3FE08BD0E
:100420002400002008B50D490868012100F01EF8DD
:1004300001210B48FFF762FF08480089ADF8000072
:100440000648807A8DF803000448C07A8DF80200CF
:10045000024948686946FFF7C5FE08BD180000203C
:100460000002300000BFFEE77047704729B1064A1E
:1004700092690243044B9A6104E0034A9269824301
:10048000014B9A617047000000100240704710B5A0
:1004900000F002F810BD00000CB5002001900090A3
:1004A0003348006840F480303149086000BF30486C
:1004B000006800F4003000900198401C0190009802
:1004C00018B90198B0F5A06FF1D12948006800F47F
:1004D000003010B10120009001E000200090009851
:1004E000012843D12348006840F0100021490860EA
:1004F0000846006820F0070008600846006840F0E1
:10050000020008601A484068194948600846406877
:1005100048600846406840F480604860084640688B
:1005200020F47C1048600846406840F4E8104860B9
:100530000846006840F08070086000BF0C48006802
:1005400000F000700028F9D00948406820F003004E
:10055000074948600846406840F00200486000BF14
:100560000348406800F00C000828F9D10CBD0000D9
:1005700000100240002002400448006820B10348F7
:100580000068401E014908607047000030000020EC
:1005900030B500BF19480068194AB0FBF2F1B1F15B
:1005A000807F01D301201DE021F07F40401E4FF0ED
:1005B000E022506150170F22002807DA13071D0EA2
:1005C000104B00F00F04241F1D5503E013071C0EF1
:1005D0000D4B1C5400BF00204FF0E022906107201B
:1005E000106100200028D5D14FF0E020006920F0F4
:1005F00001004FF0E021086130BD00003400002010
:1006000040420F0018ED00E000E400E010B5134890
:10061000006840F001001149086008464068104930
:1006200008400E494860084600680E4908400B49DA
:1006300008600846006820F480200860084640688A
:1006400020F4FE0048604FF41F008860FFF71FFF92
:100650004FF000600449086010BD00000010024027
:100660000000FFF8FFFFF6FE08ED00E000BFFEE728
:1006700002E008C8121F08C1002AFAD1704770476B
:10068000002001E001C1121F002AFBD170470000C9
:10069000FFF77EFFFFF7C6FEFFF7AEFE16E00C4A3F
:1006A00011895068FFF78BFE01280FD1094A118983
:1006B0005068FFF774FE08B9012000E000200446EE
:1006C000044A118950682246FFF772FEE7E70000EE
:1006D0000C00002000000020F806000800000020A8
:1006E000480000007006000840070008480000208D
:1006F000000400008006000809000000000C014012
:100700000800100304000000000801400001480038
:1007100009000000000C0140080010030400000064
:1007200000080140000148000000000000A24A0447
:100730000000000000000000010203040607080991
:0400000508000131BD
:00000001FF
