:020000040800F2
:100000003804002049010008E9030008D90200086B
:10001000DD020008BD0100086713000800000000B1
:10002000000000000000000000000000890500083A
:10003000C1010008000000007104000875060008F6
:100040006301000863010008630100086301000800
:1000500063010008630100086301000863010008F0
:1000600063010008630100086301000863010008E0
:1000700063010008630100086301000863010008D0
:1000800063010008630100086301000863010008C0
:1000900063010008630100086301000863010008B0
:1000A00063010008150A00086301000863010008E5
:1000B0006301000863010008630100086301000890
:1000C0006301000863010008630100086301000880
:1000D00063010008DD1000086301000863010008E7
:1000E0006301000863010008630100086301000860
:1000F0006301000863010008630100086301000850
:10010000630100086301000863010008630100083F
:10011000630100086301000863010008630100082F
:10012000630100086301000863010008630100081F
:10013000DFF810D000F030F800480047351500080F
:10014000AFF3008038040020064880470648004787
:10015000FEE7FEE7FEE7FEE7FEE7FEE7FEE7FEE777
:10016000FEE7FEE7090700083101000830B50B463D
:10017000014600202022012409E021FA02F59D42D7
:1001800005D303FA02F5491B04FA02F52844151EAB
:10019000A2F10102F1DC30BD064C074D06E0E0683B
:1001A00040F0010394E8070098471034AC42F6D3BE
:1001B000FFF7C2FF501500087015000800BFFEE7EA
:1001C00070472DE9F041024600250026002000235B
:1001D0000024002791F803C00CF00F0591F803C02C
:1001E0000CF0100CBCF1000F03D091F802C04CEAE7
:1001F000050591F800C0BCF1000F31D01468002053
:100200002BE04FF0010C0CFA00F3B1F800C00CEA3F
:1002100003069E4220D183004FF00F0C0CFA03F727
:10022000BC4305FA03FC4CEA040491F803C0BCF19A
:10023000280F06D14FF0010C0CFA00FCC2F814C0D4
:100240000AE091F803C0BCF1480F05D14FF0010C52
:100250000CFA00FCC2F810C0401C0828D1D314606E
:10026000B1F800C0BCF1FF0F34DD546800202EE06F
:1002700000F1080C4FF0010808FA0CF3B1F800C0C7
:100280000CEA03069E4221D183004FF00F0C0CFABA
:1002900003F7BC4305FA03FC4CEA040491F803C0DD
:1002A000BCF1280F05D100F1080C08FA0CF8C2F8CF
:1002B000148091F803C0BCF1480F07D100F1080C7D
:1002C0004FF0010808FA0CF8C2F81080401C08280A
:1002D000CED35460BDE8F08100BFFEE700BFFEE76B
:1002E00000B587B00121042000F0D4F801210220DC
:1002F00000F0C0F8C020ADF8180004208DF81B00F5
:1003000006A91648FFF75DFF4FF6FF70ADF8040031
:100310000020ADF80000ADF80600ADF80200694617
:100320000F4800F089FE00231A4603210C4800F014
:100330005CFC03A800F0E4FC0A20ADF8140003A95B
:10034000074800F087FC0021054800F046FE012127
:10035000034800F02FFC07B000BD0000000801407A
:100360000004004000B587B00121082000F092F899
:100370000121042000F07EF8C020ADF81800042010
:100380008DF81B0006A91648FFF71BFF4FF6FF70FC
:10039000ADF804000020ADF80000ADF80600ADF89F
:1003A000020069460F4800F047FE00231A46032169
:1003B0000C4800F01AFC03A800F0A2FC0A20ADF8DB
:1003C000140003A9074800F045FC0021054800F08F
:1003D00004FE0121034800F0EDFB07B000BD000062
:1003E000000C0140000800407047000070B500217B
:1003F00000230F22C47804B3154C246804F4E0648D
:10040000C4F5E064210AC1F10403CA40447804FA47
:1004100003F184781440214309010E4C0678A1555C
:10042000047804F01F050124AC4005786D11AD007F
:1004300005F1E025C5F8004109E0047804F01F0546
:100440000124AC40044D0678761145F8264070BD75
:100450000CED00E000E400E080E100E0024901432F
:10046000024A1160704700000000FA050CED00E040
:100470007047000029B1064AD2690243044BDA6191
:1004800004E0034AD2698243014BDA6170470000FD
:100490000010024029B1064A92690243044B9A6156
:1004A00004E0034A92698243014B9A61704700005D
:1004B0000010024030B500210022002400232D4D01
:1004C0006D6805F00C0121B1042905D0082923D15C
:1004D00005E0294D056022E0274D05601FE0254D10
:1004E0006D6805F47012234D6D6805F480340225A3
:1004F00005EB92421CB9214D554305600BE01D4DA3
:100500006D6805F400351DB11C4D5543056002E0D2
:10051000194D5543056002E0174D056000BF00BF4F
:10052000144D6D6805F0F0010909154D6B5C056807
:10053000DD4045600F4D6D6805F4E061090A104D1E
:100540006B5C4568DD4085600A4D6D6805F460515F
:10055000C90A0B4D6B5C4568DD40C560054D6D6893
:1005600005F44041890B074D6B5CC568B5FBF3F59D
:10057000056130BD0010024000127A0000093D0004
:100580002000002030000020704710B500F002F875
:1005900010BD00000CB500200190009033480068A9
:1005A00040F480303149086000BF3048006800F4F2
:1005B000003000900198401C0190009818B90198F3
:1005C000B0F5A06FF1D12948006800F4003010B1F7
:1005D0000120009001E0002000900098012843D104
:1005E0002348006840F01000214908600846006870
:1005F00020F0070008600846006840F0020008602C
:100600001A484068194948600846406848600846EA
:10061000406840F4806048600846406820F47C10E0
:1006200048600846406840F4E810486008460068A2
:1006300040F08070086000BF0C48006800F0007057
:100640000028F9D00948406820F0030007494860B5
:100650000846406840F00200486000BF0348406818
:1006600000F00C000828F9D10CBD00000010024079
:10067000002002400448006820B103480068401E82
:1006800001490860704700000000002030B500BF3D
:1006900019480068194AB0FBF2F1B1F1807F01D32B
:1006A00001201DE021F07F40401E4FF0E02250610C
:1006B00050170F22002807DA13071D0E104B00F009
:1006C0000F04241F1D5503E013071C0E0D4B1C5473
:1006D00000BF00204FF0E022906107201061002051
:1006E0000028D5D14FF0E020006920F001004FF044
:1006F000E021086130BD00000C00002040420F00E6
:1007000018ED00E000E400E010B51348006840F088
:1007100001001149086008464068104908400E4928
:100720004860084600680E4908400B4908600846C2
:10073000006820F4802008600846406820F4FE002D
:1007400048604FF41F008860FFF71FFF4FF0006004
:100750000449086010BD0000001002400000FFF8CE
:10076000FFFFF6FE08ED00E0F0B50C46154600224E
:100770000021068C4FF6FE773E400684028B018CEA
:100780004FF60C7632407E1C06EA03162E433243A7
:10079000104EB0420ED0104EB0420BD0B0F1804F90
:1007A00008D00E4EB04205D00D4EB04202D00D4ED4
:1007B000B04206D14FF6FD76314044F00106314398
:1007C00005E04FF6F576314044F0010631430283EF
:1007D0000184F0BD002C01400034014000040040C1
:1007E00000080040000C0040F0B50C461546002201
:1007F00000210026078C4FF6EF7C07EA0C070784E0
:10080000028B018C4FF6FF7707EA041640F6FF478C
:100810003A404FF6FF7707EA03373A434FF6FF7740
:1008200007EA05273A43114FB8420ED0104FB8429D
:100830000BD0B0F1804F08D00E4FB84205D00E4F0C
:10084000B84202D00D4FB84206D14FF6DF7739409B
:1008500046F01007394305E04FF65F77394044F022
:100860001007394302830184F0BD0000002C0140D1
:10087000003401400004004000080040000C00402B
:10088000F0B50C461546002200210026078C4FF6D5
:10089000FF6C07EA0C070784828B018C4FF6FF7709
:1008A00007EA04264FF60C773A404FF6FF7707EA3F
:1008B00003172F433A43114FB8420ED0104FB8429E
:1008C0000BD0B0F1804F08D00E4FB84205D00E4F7C
:1008D000B84202D00D4FB84206D14FF6FF5739400B
:1008E00046F48077394305E04FF2FF57394044F42E
:1008F0008077394382830184F0BD0000002C0140E1
:10090000003401400004004000080040000C00409A
:10091000F0B50C461546002200210026078C4EF645
:10092000FF7C07EA0C070784828B018C4FF6FF7768
:1009300007EA043640F6FF473A404FF6FF7707EAEA
:1009400005273A434FF6FF7707EA03373A43114F3B
:10095000B8420ED0104FB8420BD0B0F1804F08D043
:100960000E4FB84205D00E4FB84202D00D4FB842DC
:1009700006D14DF6FF77394046F48057394305E0FC
:1009800047F6FF57394044F4805739438283018446
:10099000F0BD0000002C0140003401400004004084
:1009A00000080040000C00401FB50121C802FFF7FD
:1009B00071FD4FF4C060FFF751FD19208DF80C0058
:1009C00001208DF80D008DF80E008DF80F0003A8A2
:1009D000FFF70CFD42F20F70ADF804004720ADF8B0
:1009E00000000020ADF80600ADF802006946084896
:1009F00000F022FB0121064800F0D6F80122114642
:100A0000034800F086F90121014800F0D3F81FBD2A
:100A1000002C014070B501211C4800F00AF90028A3
:100A200033D01B480068401C19490860084600681C
:100A3000642826D100200860164800F0F7F800B2BC
:100A400015490880154800F0F1F8404200B21449F9
:100A500008800846B0F90000162190FBF1F40E481A
:100A6000B0F9000090FBF1F5224629460DA000F0F8
:100A70007DFC0021074800F0B0FA0021074800F093
:100A8000ACFA0121014800F092F870BD002C014041
:100A9000040000200004004008000020000800407E
:100AA0000A0000204D6F746F725F415F537065657F
:100AB00064203D202564204D6F746F725F425F5348
:100AC00070656564203D2025640A000000B589B08A
:100AD000012142F21100FFF7DDFC4FF47070ADF818
:100AE000200018208DF8230003208DF8220008A98B
:100AF0002548FFF766FB6320ADF818004720ADF8E6
:100B000014000020ADF81A00ADF8160005A91F4822
:100B100000F092FA6020ADF804000120ADF8060064
:100B20000020ADF80A00ADF80C0001A9174800F04C
:100B3000F9F801A9154800F04BF901A9134800F094
:100B4000A7F901A9114800F0FDF908210F4800F0AC
:100B500035F908210D4800F08DF908210B4800F007
:100B6000E7F90821094800F02BFA0121074800F0B5
:100B70000FF80121054800F029F80121034800F091
:100B800019F809B000BD0000001001400034014018
:100B900021B1028842F08002028004E002884FF610
:100BA0007F731A4002807047CA4302827047CA436B
:100BB0000282704721B1028842F00102028004E003
:100BC00002884FF6FE731A400280704731B1B0F8C8
:100BD000442042F40042A0F8442005E0B0F844204C
:100BE000C2F30E02A0F844207047F0B50C4615463B
:100BF0001E460021002200230189028B038C4FF640
:100C0000F877394021434FF6FC473A4040F201174C
:100C10003A434FF6DD773B404FF6FF7707EA06177A
:100C20002F433B43018102830384F0BD0146888C3E
:100C3000704730B50246002000230024158A05EADB
:100C40000103958905EA010413B10CB1012000E00C
:100C5000002030BD70B505460C46244885420ED0B4
:100C6000234885420BD0B5F1804F08D021488542FA
:100C700005D02148854202D02048854200D100E0BD
:100C800000BF208850B92389A28861882846FFF7D1
:100C90006BFDE188284600F0A2F925E020880428B1
:100CA0000AD12389A28861882846FFF79DFDE18843
:100CB000284600F09DF917E0208808280AD12389EA
:100CC000A28861882846FFF7DBFDE188284600F00E
:100CD0009CF909E02389A28861882846FFF718FE5D
:100CE000E188284600F09AF970BD0000002C014010
:100CF000003401400004004000080040000C0040A7
:100D0000002101804180012181800021C180018179
:100D100070471AB183890B43838102E083898B4337
:100D20008381704770B5002400220023058C4FF6A4
:100D3000FE7635400584028C8388048B4FF68F75D0
:100D40002C40B51E2C400D882C43751E2A400D8961
:100D50002A434D882A43144DA8420BD0134DA84274
:100D600008D0134DA84205D0124DA84202D0124D12
:100D7000A84213D14FF6F7752A404D892A434FF602
:100D8000FB752A408D882A434FF6FF652B404FF6AE
:100D9000FF552B408D892B43CD892B4383800483C2
:100DA000CD888586028470BD002C0140003401404E
:100DB0000040014000440140004801400A46002133
:100DC000018B4FF6F7731940114301837047000000
:100DD00070B5002400220023058C4FF6EF763540D5
:100DE0000584028C8388048B48F6FF752C404FF6EF
:100DF000FF452C400D884FF6FF7606EA05252C436B
:100E00004FF6DF752A400D8906EA05152A434D88FD
:100E100006EA05152A43154DA84202D0144DA842F2
:100E20001DD14FF67F752A404D894FF6FF7606EAB1
:100E300005152A434FF6BF752A408D8806EA051529
:100E40002A434FF6FF352B404FF2FF752B408D891B
:100E500006EA85052B43CD8906EA85052B43838069
:100E60000483CD880587028470BD0000002C0140FA
:100E7000003401400A460021018B4FF2FF731940F4
:100E80004FF6FF7303EA0223194301837047000002
:100E900070B5002400220023058C4FF6FF66354014
:100EA0000584028C8388848B4FF68F752C404FF617
:100EB000FC752C400D882C434FF6FF552A400D89B8
:100EC0004FF6FF7606EA05252A434D8806EA0525F2
:100ED0002A43154DA84202D0144DA8421DD14FF20D
:100EE000FF752A404D894FF6FF7606EA05252A430D
:100EF0004FF6FF352A408D8806EA05252A434EF62F
:100F0000FF752B404DF6FF752B408D8906EA0515C0
:100F10002B43CD8906EA05152B4383808483CD8836
:100F20008587028470BD0000002C01400034014020
:100F30000A460021818B4FF6F773194011438183D4
:100F40007047000070B5002200230024058C4EF687
:100F5000FF7635400584038C8488828B48F6FF75C4
:100F60002A404FF6FF452A400D884FF6FF7606EAE5
:100F700005252A434DF6FF752B400D8906EA0535F8
:100F80002B434D8806EA05352B430B4DA84202D072
:100F90000A4DA84208D14BF6FF752C408D894FF6BB
:100FA000FF7606EA85152C4384808283CD88A0F8DD
:100FB0004050038470BD0000002C0140003401400B
:100FC0000A460021818B4FF2FF7319404FF6FF73E1
:100FD00003EA022319438183704781847047028B9F
:100FE0004FF6F3731A400283028B0A430283704761
:100FF000028B4FF2FF331A400283028B4FF6FF73CE
:1010000003EA01231A4302837047828B4FF6F3737E
:101010001A408283828B0A4382837047828B4FF20D
:10102000FF331A408283828B4FF6FF7303EA01235A
:101030001A43828370470000002202881D4B9842A9
:101040000ED01D4B98420BD0B0F1804F08D01B4BF7
:10105000984205D01A4B984202D01A4B984204D1BC
:101060004FF68F731A404B881A43174B984207D09C
:10107000164B984204D04FF6FF431A40CB881A43D0
:1010800002808B8883850B8803850A4B98420BD09E
:10109000094B984208D00E4B984205D00D4B984210
:1010A00002D00D4B984201D10B7A03860123838233
:1010B00070470000002C0140003401400004004053
:1010C00000080040000C00400010004000140040E8
:1010D00000400140004401400048014010B540F28A
:1010E0002551064800F07BF838B1044800F032F989
:1010F00004462146014800F032F910BD0038014095
:1011000000B587B0012144F20400FFF7C3F94FF4A2
:101110000070ADF8180003208DF81A0018208DF823
:101120001B0006A91F48FFF74CF84FF48060ADF88C
:10113000180004208DF81B0006A91A48FFF741F893
:101140004FF4E060FFF78AF925208DF814000020A5
:101150008DF8150001208DF816008DF8170005A8F0
:10116000FFF744F94FF4E13001900020ADF808009A
:10117000ADF80A00ADF80C00ADF810000C20ADF889
:101180000E0001A9084800F079F8012240F225512B
:10119000054800F04EF80121034800F007F807B0B9
:1011A00000BD0000000801400038014021B18289E3
:1011B00042F40052828104E082894DF6FF731A40A6
:1011C0008281704702460020B1F5007F00D100BF48
:1011D00013880B400BB1012000E00020704770B570
:1011E0000246002400230025002040F66A16B14282
:1011F00000D100BFC1F3421501F01F03012606FA1A
:1012000003F3012D02D19689334006E0022D02D16D
:10121000168A334001E0968A33400C12012606FA02
:1012200004F41688344013B10CB1012000E0002012
:1012300070BDF0B50346002400260025002040F6CE
:101240006A17B94200D100BF1846C1F3421401F039
:101250001F06012707FA06F5012C01D10C3004E026
:10126000022C01D1103000E014301AB107682F436E
:10127000076002E00768AF430760F0BD2DE9F04763
:1012800086B005460E460024A24600BFA1460027B0
:10129000B08900B100BF2F462C8A4CF6FF70044085
:1012A000F08804432C82AC894EF6F3100440B088D9
:1012B00031890843718908430443AC81AC8A4FF6F5
:1012C000FF400440B0890443AC8201A8FFF7F2F864
:1012D0001F48874202D1DDF810A001E0DDF80CA024
:1012E000A88900F4004040B10AEBCA0000EB0A10E4
:1012F00031684900B0FBF1F807E00AEBCA0000EBE7
:101300000A1031688900B0FBF1F86420B8FBF0F0F6
:1013100004012009642101FB1089A88900F4004020
:1013200040B1322000EBC900B0FBF1F000F0070043
:10133000044308E0322000EB09106421B0FBF1F017
:1013400000F00F0004432C8106B0BDE8F0870000D8
:101350000038014001468888C0F308007047C1F397
:1013600008028280704700BFFEE700000FB4054B03
:1013700010B503A9044A029800F018F810BC5DF8F3
:1013800014FB0000011500083400002002E008C82A
:10139000121F08C1002AFAD170477047002001E0EF
:1013A00001C1121F002AFBD1704700002DE9FF4F39
:1013B00089B09B460446002506E025280BD05A46F6
:1013C0000B999047641C6D1C20780028F5D10DB056
:1013D0002846BDE8F08F0027B8460122474900E0C3
:1013E000074314F8013F203B02FA03F00842F7D10B
:1013F00020782E2819D114F8010F47F004072A2865
:101400000ED06FF02F022078A0F1300109290CD8FE
:1014100008EB880102EB410100EB0108641CF2E7D4
:101420000A98641C50F8048B0A9020780028CED0CB
:10143000642808D0692806D075281ED05A460B9912
:1014400090476D1C58E00A994FF00A0901C90A91AA
:10145000002802DA40422D2102E0390504D52B2173
:101460008DF82010012103E0F90704D02021F7E7CF
:101470008A4608AE0DE00021FAE70A994FF00A0902
:1014800001C90A91F7E74946FEF770FE303106F8C8
:10149000011D0028F7D1ADEB060000F12009780707
:1014A00001D44FF00108C84502DDA8EB090000E0B7
:1014B00000208046002706E008A85A46C05D0B9928
:1014C00090476D1C7F1C5745F6DB04E030205A46E0
:1014D0000B9990476D1CB8F10001A8F10108F5DCEB
:1014E00005E016F8010B5A460B9990476D1CB9F1AF
:1014F0000001A9F10109F4DC641C65E70928010079
:1015000070B504460D4600BF80210948FFF75AFE1A
:101510000028F9D0A1B20648FFF721FF00BF402103
:101520000348FFF74FFE0028F9D0204670BD0000A9
:1015300000380140FFF7AAF8FFF736FAFFF7E0FDA1
:10154000FFF7C4FAFEF7CCFEFEF70CFF00BFFEE784
:101550007015000800000020380000008C130008FF
:10156000A815000838000020000400009C130008A3
:1015700000000000000000000000000000A24A047B
:101580000000000000000000010203040607080933
:101590000000000001020304010203040607080919
:0815A00002040608000000002F
:0400000508000131BD
:00000001FF
