:020000040800F2
:1000000018040020490100089F010008970100081A
:100010009B010008910100087D030008000000001A
:10002000000000000000000000000000A301000824
:100030009501000800000000A10100088D020008E1
:100040006301000863010008630100086301000800
:1000500063010008630100086301000863010008F0
:1000600063010008630100086301000863010008E0
:1000700063010008630100086301000863010008D0
:1000800063010008630100086301000863010008C0
:1000900063010008630100086301000863010008B0
:1000A00063010008630100086301000863010008A0
:1000B0006301000863010008630100086301000890
:1000C0006301000863010008630100086301000880
:1000D0006301000863010008630100086301000870
:1000E0006301000863010008630100086301000860
:1000F0006301000863010008630100086301000850
:10010000630100086301000863010008630100083F
:10011000630100086301000863010008630100082F
:10012000630100086301000863010008630100081F
:10013000DFF810D000F01AF8004800479F030008CD
:10014000AFF30080180400200648804706480047A7
:10015000FEE7FEE7FEE7FEE7FEE7FEE7FEE7FEE777
:10016000FEE7FEE71D03000831010008064C074DBD
:1001700006E0E06840F0010394E807009847103477
:10018000AC42F6D3FFF7D8FFA8030008C803000865
:1001900000BFFEE7704700BFFEE700BFFEE7704705
:1001A0007047704710B500F001F810BD0CB5002085
:1001B000019000903348006840F480303149086075
:1001C00000BF3048006800F4003000900198401CE7
:1001D0000190009818B90198B0F5A06FF1D12948A5
:1001E000006800F4003010B10120009001E0002010
:1001F00000900098012843D12348006840F0100087
:10020000214908600846006820F007000860084699
:10021000006840F0020008601A48406819494860C8
:100220000846406848600846406840F4806048607E
:100230000846406820F47C1048600846406840F456
:10024000E81048600846006840F08070086000BF11
:100250000C48006800F000700028F9D00948406898
:1002600020F00300074948600846406840F002005B
:10027000486000BF0348406800F00C000828F9D12E
:100280000CBD00000010024000200240044800683D
:1002900020B103480068401E014908607047000013
:1002A0000000002030B500BF194800684FF47A7292
:1002B000B0FBF2F1B1F1807F01D301201DE021F00C
:1002C0007F40401E4FF0E022506150170F2200285F
:1002D00007DA13071D0E0F4B00F00F04241F1D55E6
:1002E00003E013071C0E0C4B1C5400BF00204FF002
:1002F000E02290610720106100200028D4D14FF047
:10030000E020006920F001004FF0E021086130BDDD
:100310000400002018ED00E000E400E010B51348F0
:10032000006840F001001149086008464068104923
:1003300008400E494860084600680E4908400B49CD
:1003400008600846006820F480200860084640687D
:1003500020F4FE0048604FF41F008860FFF722FF82
:100360004FF000600449086010BD0000001002401A
:100370000000FFF8FFFFF6FE08ED00E000BFFEE71B
:1003800002E008C8121F08C1002AFAD1704770475E
:10039000002001E001C1121F002AFBD17047FFF7C6
:1003A00081FF00BFFEE70000C80300080000002036
:1003B0001800000080030008E00300081800002077
:1003C00000040000900300080000000000A24A049E
:1003D00000000000000000000102030406070809F5
:0400000508000131BD
:00000001FF
