:020000040800F2
:1000000040040020050100089D0200089502000838
:1000100099020008790100086B0A0008000000003E
:100020000000000000000000000000003D04000887
:100030007D010008000000002503000829050008D4
:100040001F0100081F0100081F0100081F01000810
:100050001F0100081F0100081F0100081F01000800
:100060001F0100081F0100081F0100081F010008F0
:100070001F0100081F0100081F0100081F010008E0
:100080001F0100081F0100081F0100081F010008D0
:100090001F0100081F0100081F0100081F010008C0
:1000A0001F0100081F0100081F0100081F010008B0
:1000B0001F0100081F0100081F0100081F010008A0
:1000C0001F0100081F0100081F0100081F01000890
:1000D0001F0100081F010008990600081F01000801
:1000E0001F0100081F0100081F010008DFF810D0E1
:1000F00000F030F800480047390C0008AFF30080EA
:10010000400400200648804706480047FEE7FEE717
:10011000FEE7FEE7FEE7FEE7FEE7FEE7FEE7FEE7B7
:10012000BD050008ED00000830B50B460146002073
:100130002022012409E021FA02F59D4205D303FAA9
:1001400002F5491B04FA02F52844151EA2F101022A
:10015000F1DC30BD064C074D06E0E06840F00103DD
:1001600094E8070098471034AC42F6D3FFF7C2FF7B
:10017000580C0008780C000800BFFEE770472DE916
:10018000F04102460025002600200023002400271D
:1001900091F803C00CF00F0591F803C00CF0100C9F
:1001A000BCF1000F03D091F802C04CEA050591F8AC
:1001B00000C0BCF1000F31D0146800202BE04FF0DC
:1001C000010C0CFA00F3B1F800C00CEA03069E42E1
:1001D00020D183004FF00F0C0CFA03F7BC4305FA53
:1001E00003FC4CEA040491F803C0BCF1280F06D1CB
:1001F0004FF0010C0CFA00FCC2F814C00AE091F8B0
:1002000003C0BCF1480F05D14FF0010C0CFA00FC03
:10021000C2F810C0401C0828D1D31460B1F800C047
:10022000BCF1FF0F34DD546800202EE000F1080C13
:100230004FF0010808FA0CF3B1F800C00CEA03060D
:100240009E4221D183004FF00F0C0CFA03F7BC4300
:1002500005FA03FC4CEA040491F803C0BCF1280F32
:1002600005D100F1080C08FA0CF8C2F8148091F8D6
:1002700003C0BCF1480F07D100F1080C4FF0010892
:1002800008FA0CF8C2F81080401C0828CED354603D
:10029000BDE8F08100BFFEE700BFFEE77047000049
:1002A00070B5002100230F22C47804B3154C2468D4
:1002B00004F4E064C4F5E064210AC1F10403CA4017
:1002C000447804FA03F184781440214309010E4C68
:1002D0000678A155047804F01F050124AC40057888
:1002E0006D11AD0005F1E025C5F8004109E0047885
:1002F00004F01F050124AC40044D0678761145F842
:10030000264070BD0CED00E000E400E080E100E07C
:1003100002490143024A1160704700000000FA05DB
:100320000CED00E07047000029B1064AD269024393
:10033000044BDA6104E0034AD2698243014BDA617B
:10034000704700000010024029B1064A926902433A
:10035000044B9A6104E0034A92698243014B9A611B
:10036000704700000010024030B500210022002438
:1003700000232D4D6D6805F00C0121B1042905D035
:10038000082923D105E0294D056022E0274D0560AD
:100390001FE0254D6D6805F47012234D6D6805F45E
:1003A0008034022505EB92421CB9214D554305606E
:1003B0000BE01D4D6D6805F400351DB11C4D554316
:1003C000056002E0194D5543056002E0174D0560D8
:1003D00000BF00BF144D6D6805F0F0010909154D0F
:1003E0006B5C0568DD4045600F4D6D6805F4E061AC
:1003F000090A104D6B5C4568DD4085600A4D6D68EB
:1004000005F46051C90A0B4D6B5C4568DD40C56061
:10041000054D6D6805F44041890B074D6B5CC5685F
:10042000B5FBF3F5056130BD0010024000127A0003
:1004300000093D002400002034000020704710B562
:1004400000F002F810BD00000CB5002001900090F3
:100450003348006840F480303149086000BF3048BC
:10046000006800F4003000900198401C0190009852
:1004700018B90198B0F5A06FF1D12948006800F4CF
:10048000003010B10120009001E0002000900098A1
:10049000012843D12348006840F01000214908603A
:1004A0000846006820F0070008600846006840F031
:1004B000020008601A4840681949486008464068C8
:1004C00048600846406840F48060486008464068DC
:1004D00020F47C1048600846406840F4E81048600A
:1004E0000846006840F08070086000BF0C48006853
:1004F00000F000700028F9D00948406820F003009F
:10050000074948600846406840F00200486000BF64
:100510000348406800F00C000828F9D10CBD000029
:1005200000100240002002400448006820B1034847
:100530000068401E0149086070470000000000206C
:1005400030B500BF19480068194AB0FBF2F1B1F1AB
:10055000807F01D301201DE021F07F40401E4FF03D
:10056000E022506150170F22002807DA13071D0EF2
:10057000104B00F00F04241F1D5503E013071C0E41
:100580000D4B1C5400BF00204FF0E022906107206B
:10059000106100200028D5D14FF0E020006920F044
:1005A00001004FF0E021086130BD00001000002084
:1005B00040420F0018ED00E000E400E010B51348E1
:1005C000006840F001001149086008464068104981
:1005D00008400E494860084600680E4908400B492B
:1005E00008600846006820F48020086008464068DB
:1005F00020F4FE0048604FF41F008860FFF71FFFE3
:100600004FF000600449086010BD00000010024077
:100610000000FFF8FFFFF6FE08ED00E000B585B032
:10062000012144F20400FFF78FFE4FF40070ADF893
:10063000100003208DF8120018208DF8130004A973
:100640001348FFF79CFD4FF48060ADF810000420C4
:100650008DF8130004A90E48FFF791FD4FF4E13027
:1006600000900020ADF80400ADF80600ADF80800D9
:10067000ADF80C000C20ADF80A006946054800F002
:100680007FF90121034800F013F905B000BD000017
:10069000000801400038014010B540F225513E48A5
:1006A00000F01FF9002875D03B4800F0D5F93B4910
:1006B0003B4A12788854084639490978405CEF284B
:1006C0000CD13648002101600171EF2033490870D8
:1006D000012033490870334908705BE02F483049E6
:1006E0000978405CFE283AD12E480078012836D19E
:1006F0002A4840782949897808442849C978884295
:100700001FD1294800210160017124490A68026053
:1007100009790171214800210160017123A000F0D5
:10072000A7F92148417825A000F0A2F91E48817858
:1007300027A000F09DF91C48C17829A000F098F985
:1007400002E02BA000F094F914480021016001712F
:100750000020134908700220124908701AE00F485F
:100760000F490978405CFE2814D00E480078012813
:1007700010D10B480078401C0949087008460078E1
:10078000052807DB0020087006490870034800218F
:100790000160017110BD000000440040090000200C
:1007A0000F0000200E000020040000204368656355
:1007B0006B207269676874210A00000046756E63D9
:1007C00074696F6E204269743A2025640A00000043
:1007D00044617461204269743A2025640A00000073
:1007E000436865636B204269743A2025640A0000FF
:1007F000436865636B204661696C210A0000000054
:1008000000B587B001210420FFF79EFD01214804B7
:10081000FFF78AFD0420ADF8180003208DF81A00B8
:1008200018208DF81B0006A91F48FFF7A8FC082018
:10083000ADF8180004208DF81B0006A91A48FFF730
:100840009EFC4FF4E060FFF763FD26208DF8040066
:1008500000208DF8050001208DF806008DF80700B6
:1008600001A8FFF71DFD4FF4E13002900020ADF824
:100870000C00ADF80E00ADF810000C20ADF8120021
:100880000020ADF8140002A9084800F079F8012210
:1008900040F22551054800F04EF80121034800F0D0
:1008A00007F807B000BD0000000801400044004008
:1008B00021B1828942F40052828104E082894DF69E
:1008C000FF731A408281704702460020B1F5007F15
:1008D00000D100BF13880B400BB1012000E00020C5
:1008E000704770B50246002400230025002040F622
:1008F0006A16B14200D100BFC1F3421501F01F03D7
:10090000012606FA03F3012D02D19689334006E051
:10091000022D02D1168A334001E0968A33400C1230
:10092000012606FA04F41688344013B10CB10120F4
:1009300000E0002070BDF0B503460024002600252D
:10094000002040F66A17B94200D100BF1846C1F333
:10095000421401F01F06012707FA06F5012C01D108
:100960000C3004E0022C01D1103000E014301AB138
:1009700007682F43076002E00768AF430760F0BDD8
:100980002DE9F04786B005460E460024A24600BF7A
:10099000A1460027B08900B100BF2F462C8A4CF633
:1009A000FF700440F08804432C82AC894EF6F310AB
:1009B0000440B08831890843718908430443AC81FD
:1009C000AC8A4FF6FF400440B0890443AC8201A8D2
:1009D000FFF7CAFC1F48874202D1DDF810A001E0F2
:1009E000DDF80CA0A88900F4004040B10AEBCA0071
:1009F00000EB0A1031684900B0FBF1F807E00AEBA0
:100A0000CA0000EB0A1031688900B0FBF1F86420DD
:100A1000B8FBF0F004012009642101FB1089A889CA
:100A200000F4004040B1322000EBC900B0FBF1F00F
:100A300000F00700044308E0322000EB09106421B5
:100A4000B0FBF1F000F00F0004432C8106B0BDE8CC
:100A5000F08700000038014001468888C0F3080094
:100A60007047C1F308028280704700BFFEE70000B4
:100A70000FB4054B10B503A9044A029800F018F80A
:100A800010BC5DF814FB0000050C000838000020C5
:100A900002E008C8121F08C1002AFAD17047704747
:100AA000002001E001C1121F002AFBD170470000A5
:100AB0002DE9FF4F89B09B460446002506E0252816
:100AC0000BD05A460B999047641C6D1C2078002867
:100AD000F5D10DB02846BDE8F08F0027B8460122B9
:100AE000474900E0074314F8013F203B02FA03F0B6
:100AF0000842F7D120782E2819D114F8010F47F0B9
:100B000004072A280ED06FF02F022078A0F13001C0
:100B100009290CD808EB880102EB410100EB010820
:100B2000641CF2E70A98641C50F8048B0A90207841
:100B30000028CED0642808D0692806D075281ED099
:100B40005A460B9990476D1C58E00A994FF00A09D4
:100B500001C90A91002802DA40422D2102E039053C
:100B600004D52B218DF82010012103E0F90704D0D2
:100B70002021F7E78A4608AE0DE00021FAE70A993E
:100B80004FF00A0901C90A91F7E74946FFF7CCFA85
:100B9000303106F8011D0028F7D1ADEB060000F159
:100BA0002009780701D44FF00108C84502DDA8EB01
:100BB000090000E000208046002706E008A85A4609
:100BC000C05D0B9990476D1C7F1C5745F6DB04E018
:100BD00030205A460B9990476D1CB8F10001A8F1DE
:100BE0000108F5DC05E016F8010B5A460B99904711
:100BF0006D1CB9F10001A9F10109F4DC641C65E781
:100C00000928010070B504460D4600BF802109483F
:100C1000FFF75AFE0028F9D0A1B20648FFF721FFDE
:100C200000BF40210348FFF74FFE0028F9D02046BF
:100C300070BD000000380140FFF782FCFFF7EEFCBA
:100C4000FFF7DEFD02A0FFF713FF00BFFEE7000085
:100C500048656C6C6F210A00780C000800000020C9
:100C60003C000000900A0008B40C00083C00002082
:100C700004040000A00A00080000000000000000BA
:100C8000000000000000000000A24A040000000074
:100C9000000000000102030406070809000000002C
:100CA00001020304010203040607080902040608FE
:040CB0000000000040
:04000005080000ED02
:00000001FF
